{"abi":[{"type":"function","name":"AA","inputs":[],"outputs":[{"name":"","type":"uint256","internalType":"uint256"}],"stateMutability":"view"},{"type":"function","name":"BB","inputs":[],"outputs":[{"name":"","type":"uint256","internalType":"uint256"}],"stateMutability":"view"},{"type":"function","name":"GX","inputs":[],"outputs":[{"name":"","type":"uint256","internalType":"uint256"}],"stateMutability":"view"},{"type":"function","name":"GY","inputs":[],"outputs":[{"name":"","type":"uint256","internalType":"uint256"}],"stateMutability":"view"},{"type":"function","name":"NN","inputs":[],"outputs":[{"name":"","type":"uint256","internalType":"uint256"}],"stateMutability":"view"},{"type":"function","name":"PP","inputs":[],"outputs":[{"name":"","type":"uint256","internalType":"uint256"}],"stateMutability":"view"},{"type":"function","name":"derivePubKey","inputs":[{"name":"privKey","type":"uint256","internalType":"uint256"}],"outputs":[{"name":"","type":"uint256","internalType":"uint256"},{"name":"","type":"uint256","internalType":"uint256"}],"stateMutability":"pure"}],"bytecode":{"object":"0x610fe661004d600b8282823980515f1a6073146041577f4e487b71000000000000000000000000000000000000000000000000000000005f525f60045260245ffd5b305f52607381538281f3fe7300000000000000000000000000000000000000003014608060405260043610610086575f3560e01c80639870e2a4116100645780639870e2a4146100e4578063997da8d414610102578063bc9e2bcf14610120578063eeeac01e1461015157610086565b806303a507be1461008a5780635727dc5c146100a85780637a308a4c146100c6575b5f5ffd5b61009261016f565b60405161009f9190610d0c565b60405180910390f35b6100b0610193565b6040516100bd9190610d0c565b60405180910390f35b6100ce610198565b6040516100db9190610d0c565b60405180910390f35b6100ec6101bc565b6040516100f99190610d0c565b60405180910390f35b61010a6101e0565b6040516101179190610d0c565b60405180910390f35b61013a60048036038101906101359190610d53565b6101e4565b604051610148929190610d7e565b60405180910390f35b61015961025c565b6040516101669190610d0c565b60405180910390f35b7f79be667ef9dcbbac55a06295ce870b07029bfcdb2dce28d959f2815b16f8179881565b600781565b7f483ada7726a3c4655da4fbfc0e1108a8fd17b448a68554199c47d08ffb10d4b881565b7ffffffffffffffffffffffffffffffffebaaedce6af48a03bbfd25e8cd036414181565b5f81565b5f5f610253837f79be667ef9dcbbac55a06295ce870b07029bfcdb2dce28d959f2815b16f817987f483ada7726a3c4655da4fbfc0e1108a8fd17b448a68554199c47d08ffb10d4b85f7ffffffffffffffffffffffffffffffffffffffffffffffffffffffffefffffc2f610280565b91509150915091565b7ffffffffffffffffffffffffffffffffffffffffffffffffffffffffefffffc2f81565b5f5f5f5f5f6102948a8a8a60018b8b6102b7565b9250925092506102a683838389610355565b945094505050509550959350505050565b5f5f5f5f89036102cf57878787925092509250610349565b5f8990505f5f90505f5f90505f600190505b5f841461033b575f600185161461030e576103018383838f8f8f8e6103c7565b8093508194508295505050505b60028461031b9190610dff565b935061032a8c8c8c8c8c610a32565b809c50819d50829e505050506102e1565b828282965096509650505050505b96509650969350505050565b5f5f5f6103628585610be9565b90505f848061037457610373610da5565b5b82830990505f858061038957610388610da5565b5b828a0990505f868061039e5761039d610da5565b5b87806103ad576103ac610da5565b5b8486098a0990508181955095505050505094509492505050565b5f5f5f5f8a1480156103d857505f89145b156103eb57868686925092509250610a25565b5f871480156103f957505f86145b1561040c57898989925092509250610a25565b610414610cd2565b848061042357610422610da5565b5b898a09815f6004811061043957610438610e2f565b5b602002018181525050848061045157610450610da5565b5b815f6004811061046457610463610e2f565b5b60200201518a098160016004811061047f5761047e610e2f565b5b602002018181525050848061049757610496610da5565b5b868709816002600481106104ae576104ad610e2f565b5b60200201818152505084806104c6576104c5610da5565b5b816002600481106104da576104d9610e2f565b5b60200201518709816003600481106104f5576104f4610e2f565b5b6020020181815250506040518060800160405280868061051857610517610da5565b5b8360026004811061052c5761052b610e2f565b5b60200201518e098152602001868061054757610546610da5565b5b8360036004811061055b5761055a610e2f565b5b60200201518d098152602001868061057657610575610da5565b5b835f6004811061058957610588610e2f565b5b60200201518b09815260200186806105a4576105a3610da5565b5b836001600481106105b8576105b7610e2f565b5b60200201518a098152509050806002600481106105d8576105d7610e2f565b5b6020020151815f600481106105f0576105ef610e2f565b5b602002015114158061063257508060036004811061061157610610610e2f565b5b60200201518160016004811061062a57610629610e2f565b5b602002015114155b610671576040517f08c379a000000000000000000000000000000000000000000000000000000000815260040161066890610eb6565b60405180910390fd5b610679610cd2565b858061068857610687610da5565b5b825f6004811061069b5761069a610e2f565b5b6020020151876106ab9190610ed4565b836002600481106106bf576106be610e2f565b5b602002015108815f600481106106d8576106d7610e2f565b5b60200201818152505085806106f0576106ef610da5565b5b8260016004811061070457610703610e2f565b5b6020020151876107149190610ed4565b8360036004811061072857610727610e2f565b5b6020020151088160016004811061074257610741610e2f565b5b602002018181525050858061075a57610759610da5565b5b815f6004811061076d5761076c610e2f565b5b6020020151825f6004811061078557610784610e2f565b5b6020020151098160026004811061079f5761079e610e2f565b5b60200201818152505085806107b7576107b6610da5565b5b815f600481106107ca576107c9610e2f565b5b6020020151826002600481106107e3576107e2610e2f565b5b602002015109816003600481106107fd576107fc610e2f565b5b6020020181815250505f868061081657610815610da5565b5b8260036004811061082a57610829610e2f565b5b60200201518861083a9190610ed4565b888061084957610848610da5565b5b8460016004811061085d5761085c610e2f565b5b60200201518560016004811061087657610875610e2f565b5b602002015109089050868061088e5761088d610da5565b5b878061089d5761089c610da5565b5b88806108ac576108ab610da5565b5b846002600481106108c0576108bf610e2f565b5b6020020151865f600481106108d8576108d7610e2f565b5b602002015109600209886108ec9190610ed4565b820890505f8780610900576108ff610da5565b5b888061090f5761090e610da5565b5b838a61091b9190610ed4565b8a8061092a57610929610da5565b5b8660026004811061093e5761093d610e2f565b5b6020020151885f6004811061095657610955610e2f565b5b602002015109088460016004811061097157610970610e2f565b5b6020020151099050878061098857610987610da5565b5b888061099757610996610da5565b5b846003600481106109ab576109aa610e2f565b5b6020020151866001600481106109c4576109c3610e2f565b5b602002015109896109d59190610ed4565b820890505f88806109e9576109e8610da5565b5b89806109f8576109f7610da5565b5b8b8f09855f60048110610a0e57610a0d610e2f565b5b602002015109905082828297509750975050505050505b9750975097945050505050565b5f5f5f5f8603610a4a57878787925092509250610bde565b5f8480610a5a57610a59610da5565b5b898a0990505f8580610a6f57610a6e610da5565b5b898a0990505f8680610a8457610a83610da5565b5b898a0990505f8780610a9957610a98610da5565b5b8880610aa857610aa7610da5565b5b848e0960040990505f8880610ac057610abf610da5565b5b8980610acf57610ace610da5565b5b8a80610ade57610add610da5565b5b8586098c098a80610af257610af1610da5565b5b876003090890508880610b0857610b07610da5565b5b8980610b1757610b16610da5565b5b8384088a610b259190610ed4565b8a80610b3457610b33610da5565b5b8384090894508880610b4957610b48610da5565b5b8980610b5857610b57610da5565b5b8a80610b6757610b66610da5565b5b8687096008098a610b789190610ed4565b8a80610b8757610b86610da5565b5b8b80610b9657610b95610da5565b5b888d610ba29190610ed4565b860884090893508880610bb857610bb7610da5565b5b8980610bc757610bc6610da5565b5b8c8e09600209925084848497509750975050505050505b955095509592505050565b5f5f8314158015610bfa5750818314155b8015610c0657505f8214155b610c45576040517f08c379a0000000000000000000000000000000000000000000000000000000008152600401610c3c90610f51565b60405180910390fd5b5f5f90505f600190505f8490505f5b5f8714610cc5578682610c679190610dff565b9050828680610c7957610c78610da5565b5b8780610c8857610c87610da5565b5b85840988610c969190610ed4565b86088094508195505050868782610cad9190610f6f565b83610cb89190610ed4565b8098508193505050610c54565b8394505050505092915050565b6040518060800160405280600490602082028036833780820191505090505090565b5f819050919050565b610d0681610cf4565b82525050565b5f602082019050610d1f5f830184610cfd565b92915050565b5f5ffd5b610d3281610cf4565b8114610d3c575f5ffd5b50565b5f81359050610d4d81610d29565b92915050565b5f60208284031215610d6857610d67610d25565b5b5f610d7584828501610d3f565b91505092915050565b5f604082019050610d915f830185610cfd565b610d9e6020830184610cfd565b9392505050565b7f4e487b71000000000000000000000000000000000000000000000000000000005f52601260045260245ffd5b7f4e487b71000000000000000000000000000000000000000000000000000000005f52601160045260245ffd5b5f610e0982610cf4565b9150610e1483610cf4565b925082610e2457610e23610da5565b5b828204905092915050565b7f4e487b71000000000000000000000000000000000000000000000000000000005f52603260045260245ffd5b5f82825260208201905092915050565b7f557365206a6163446f75626c652066756e6374696f6e20696e737465616400005f82015250565b5f610ea0601e83610e5c565b9150610eab82610e6c565b602082019050919050565b5f6020820190508181035f830152610ecd81610e94565b9050919050565b5f610ede82610cf4565b9150610ee983610cf4565b9250828203905081811115610f0157610f00610dd2565b5b92915050565b7f496e76616c6964206e756d6265720000000000000000000000000000000000005f82015250565b5f610f3b600e83610e5c565b9150610f4682610f07565b602082019050919050565b5f6020820190508181035f830152610f6881610f2f565b9050919050565b5f610f7982610cf4565b9150610f8483610cf4565b9250828202610f9281610cf4565b91508282048414831517610fa957610fa8610dd2565b5b509291505056fea2646970667358221220c5ab9505ac22c744a8fa53de9b1de22dbd3216745b43cf602d64cc74354d675664736f6c634300081c0033","linkReferences":{}},"methodIdentifiers":{"AA()":"997da8d4","BB()":"5727dc5c","GX()":"03a507be","GY()":"7a308a4c","NN()":"9870e2a4","PP()":"eeeac01e","derivePubKey(uint256)":"bc9e2bcf"},"id":60}