{"abi":[{"type":"constructor","inputs":[{"name":"_entryPoint","type":"address","internalType":"contract IEntryPoint"}],"stateMutability":"nonpayable"},{"type":"function","name":"accountImplementation","inputs":[],"outputs":[{"name":"","type":"address","internalType":"contract NpubAccount"}],"stateMutability":"view"},{"type":"function","name":"createAccount","inputs":[{"name":"owner","type":"uint256","internalType":"uint256"},{"name":"salt","type":"uint256","internalType":"uint256"}],"outputs":[{"name":"ret","type":"address","internalType":"contract NpubAccount"}],"stateMutability":"nonpayable"},{"type":"function","name":"getAddress","inputs":[{"name":"owner","type":"uint256","internalType":"uint256"},{"name":"salt","type":"uint256","internalType":"uint256"}],"outputs":[{"name":"","type":"address","internalType":"address"}],"stateMutability":"view"}],"bytecode":{"object":"0x60a060405234801561000f575f5ffd5b5060405161402238038061402283398181016040528101906100319190610117565b8060405161003e9061009b565b610048919061019d565b604051809103905ff080158015610061573d5f5f3e3d5ffd5b5073ffffffffffffffffffffffffffffffffffffffff1660808173ffffffffffffffffffffffffffffffffffffffff1681525050506101b6565b6131e980610e3983390190565b5f5ffd5b5f73ffffffffffffffffffffffffffffffffffffffff82169050919050565b5f6100d5826100ac565b9050919050565b5f6100e6826100cb565b9050919050565b6100f6816100dc565b8114610100575f5ffd5b50565b5f81519050610111816100ed565b92915050565b5f6020828403121561012c5761012b6100a8565b5b5f61013984828501610103565b91505092915050565b5f819050919050565b5f61016561016061015b846100ac565b610142565b6100ac565b9050919050565b5f6101768261014b565b9050919050565b5f6101878261016c565b9050919050565b6101978161017d565b82525050565b5f6020820190506101b05f83018461018e565b92915050565b608051610c5e6101db5f395f818160c30152818161012501526102070152610c5e5ff3fe608060405234801561000f575f5ffd5b506004361061003f575f3560e01c806311464fbe14610043578063610526d1146100615780639262d75914610091575b5f5ffd5b61004b6100c1565b60405161005891906103ab565b60405180910390f35b61007b600480360381019061007691906103fb565b6100e5565b60405161008891906103ab565b60405180910390f35b6100ab60048036038101906100a691906103fb565b6101da565b6040516100b89190610459565b60405180910390f35b7f000000000000000000000000000000000000000000000000000000000000000081565b5f5f6100f184846101da565b90505f8173ffffffffffffffffffffffffffffffffffffffff163b90505f8111156101205781925050506101d4565b835f1b7f0000000000000000000000000000000000000000000000000000000000000000866040516024016101559190610481565b60405160208183030381529060405263fe4b84df60e01b6020820180517bffffffffffffffffffffffffffffffffffffffffffffffffffffffff83818316178352505050506040516101a690610324565b6101b192919061050a565b8190604051809103905ff59050801580156101ce573d5f5f3e3d5ffd5b50925050505b92915050565b5f6102c8825f1b604051806020016101f190610324565b6020820181038252601f19601f820116604052507f0000000000000000000000000000000000000000000000000000000000000000866040516024016102379190610481565b60405160208183030381529060405263fe4b84df60e01b6020820180517bffffffffffffffffffffffffffffffffffffffffffffffffffffffff838183161783525050505060405160200161028d92919061050a565b6040516020818303038152906040526040516020016102ad929190610572565b604051602081830303815290604052805190602001206102d0565b905092915050565b5f6102dc8383306102e4565b905092915050565b5f604051836040820152846020820152828152600b810160ff815373ffffffffffffffffffffffffffffffffffffffff6055822016925050509392505050565b6106938061059683390190565b5f73ffffffffffffffffffffffffffffffffffffffff82169050919050565b5f819050919050565b5f61037361036e61036984610331565b610350565b610331565b9050919050565b5f61038482610359565b9050919050565b5f6103958261037a565b9050919050565b6103a58161038b565b82525050565b5f6020820190506103be5f83018461039c565b92915050565b5f5ffd5b5f819050919050565b6103da816103c8565b81146103e4575f5ffd5b50565b5f813590506103f5816103d1565b92915050565b5f5f60408385031215610411576104106103c4565b5b5f61041e858286016103e7565b925050602061042f858286016103e7565b9150509250929050565b5f61044382610331565b9050919050565b61045381610439565b82525050565b5f60208201905061046c5f83018461044a565b92915050565b61047b816103c8565b82525050565b5f6020820190506104945f830184610472565b92915050565b5f81519050919050565b5f82825260208201905092915050565b8281835e5f83830152505050565b5f601f19601f8301169050919050565b5f6104dc8261049a565b6104e681856104a4565b93506104f68185602086016104b4565b6104ff816104c2565b840191505092915050565b5f60408201905061051d5f83018561044a565b818103602083015261052f81846104d2565b90509392505050565b5f81905092915050565b5f61054c8261049a565b6105568185610538565b93506105668185602086016104b4565b80840191505092915050565b5f61057d8285610542565b91506105898284610542565b9150819050939250505056fe6080604052604051610693380380610693833981810160405281019061002591906104d7565b610035828261003c60201b60201c565b50506105b3565b61004b826100c060201b60201c565b8173ffffffffffffffffffffffffffffffffffffffff167fbc7cd75a20ee27fd9adebab32041f755214dbc6bffa90cc0225b39da2e5c2d3b60405160405180910390a25f815111156100ad576100a7828261018f60201b60201c565b506100bc565b6100bb61021560201b60201c565b5b5050565b5f8173ffffffffffffffffffffffffffffffffffffffff163b0361011b57806040517f4c9c8ce30000000000000000000000000000000000000000000000000000000081526004016101129190610540565b60405180910390fd5b8061014d7f360894a13ba1a3210667c828492db98dca3e2076cc3735a920a3ca505d382bbc5f1b61025160201b60201c565b5f015f6101000a81548173ffffffffffffffffffffffffffffffffffffffff021916908373ffffffffffffffffffffffffffffffffffffffff16021790555050565b60605f5f8473ffffffffffffffffffffffffffffffffffffffff16846040516101b8919061059d565b5f60405180830381855af49150503d805f81146101f0576040519150601f19603f3d011682016040523d82523d5f602084013e6101f5565b606091505b509150915061020b85838361025a60201b60201c565b9250505092915050565b5f34111561024f576040517fb398979f00000000000000000000000000000000000000000000000000000000815260040160405180910390fd5b565b5f819050919050565b60608261027557610270826102ed60201b60201c565b6102e5565b5f825114801561029b57505f8473ffffffffffffffffffffffffffffffffffffffff163b145b156102dd57836040517f9996b3150000000000000000000000000000000000000000000000000000000081526004016102d49190610540565b60405180910390fd5b8190506102e6565b5b9392505050565b5f815111156102fe57805160208201fd5b6040517fd6bda27500000000000000000000000000000000000000000000000000000000815260040160405180910390fd5b5f604051905090565b5f5ffd5b5f5ffd5b5f73ffffffffffffffffffffffffffffffffffffffff82169050919050565b5f61036a82610341565b9050919050565b61037a81610360565b8114610384575f5ffd5b50565b5f8151905061039581610371565b92915050565b5f5ffd5b5f5ffd5b5f601f19601f8301169050919050565b7f4e487b71000000000000000000000000000000000000000000000000000000005f52604160045260245ffd5b6103e9826103a3565b810181811067ffffffffffffffff82111715610408576104076103b3565b5b80604052505050565b5f61041a610330565b905061042682826103e0565b919050565b5f67ffffffffffffffff821115610445576104446103b3565b5b61044e826103a3565b9050602081019050919050565b8281835e5f83830152505050565b5f61047b6104768461042b565b610411565b9050828152602081018484840111156104975761049661039f565b5b6104a284828561045b565b509392505050565b5f82601f8301126104be576104bd61039b565b5b81516104ce848260208601610469565b91505092915050565b5f5f604083850312156104ed576104ec610339565b5b5f6104fa85828601610387565b925050602083015167ffffffffffffffff81111561051b5761051a61033d565b5b610527858286016104aa565b9150509250929050565b61053a81610360565b82525050565b5f6020820190506105535f830184610531565b92915050565b5f81519050919050565b5f81905092915050565b5f61057782610559565b6105818185610563565b935061059181856020860161045b565b80840191505092915050565b5f6105a8828461056d565b915081905092915050565b60d4806105bf5f395ff3fe6080604052600a600c565b005b60186014601a565b6026565b565b5f60216044565b905090565b365f5f375f5f365f845af43d5f5f3e805f81146040573d5ff35b3d5ffd5b5f606e7f360894a13ba1a3210667c828492db98dca3e2076cc3735a920a3ca505d382bbc5f1b6095565b5f015f9054906101000a900473ffffffffffffffffffffffffffffffffffffffff16905090565b5f81905091905056fea2646970667358221220aacf20c81ca26ec9a0a761636c072642e757eb4b17e5402966b2e4293698019164736f6c634300081c0033a2646970667358221220e0f44eb46c2a3ada0e39d88d6701967c679e010d0155dc54efa761150197fc9a64736f6c634300081c003360c06040523073ffffffffffffffffffffffffffffffffffffffff1660809073ffffffffffffffffffffffffffffffffffffffff16815250348015610042575f5ffd5b506040516131e93803806131e98339818101604052810190610064919061025b565b8073ffffffffffffffffffffffffffffffffffffffff1660a08173ffffffffffffffffffffffffffffffffffffffff16815250506100a66100ac60201b60201c565b506102c1565b5f6100bb6101aa60201b60201c565b9050805f0160089054906101000a900460ff1615610105576040517ff92ee8a900000000000000000000000000000000000000000000000000000000815260040160405180910390fd5b67ffffffffffffffff8016815f015f9054906101000a900467ffffffffffffffff1667ffffffffffffffff16146101a75767ffffffffffffffff815f015f6101000a81548167ffffffffffffffff021916908367ffffffffffffffff1602179055507fc7f505b2f371ae2175ee4913f4499e1f2633a7b5936321eed1cdaeb6115181d267ffffffffffffffff60405161019e91906102a8565b60405180910390a15b50565b5f5f6101ba6101c360201b60201c565b90508091505090565b5f7ff0c57e16840df040f15088dc2f81fe391c3923bec73e23a9662efc9c229c6a005f1b905090565b5f5ffd5b5f73ffffffffffffffffffffffffffffffffffffffff82169050919050565b5f610219826101f0565b9050919050565b5f61022a8261020f565b9050919050565b61023a81610220565b8114610244575f5ffd5b50565b5f8151905061025581610231565b92915050565b5f602082840312156102705761026f6101ec565b5b5f61027d84828501610247565b91505092915050565b5f67ffffffffffffffff82169050919050565b6102a281610286565b82525050565b5f6020820190506102bb5f830184610299565b92915050565b60805160a051612ef26102f75f395f818161082601526110d301525f8181610e2201528181610e7701526110310152612ef25ff3fe608060405260043610610101575f3560e01c80638da5cb5b11610094578063bc197c8111610063578063bc197c8114610306578063c399ec8814610342578063d087d2881461036c578063f23a6e6114610396578063fe4b84df146103d257610108565b80638da5cb5b14610260578063ad3cb1cc1461028a578063b0d691fe146102b4578063b61d27f6146102de57610108565b80634a58db19116100d05780634a58db19146101e85780634d44560d146101f25780634f1ef2861461021a57806352d1902d1461023657610108565b806301ffc9a71461010c578063150b7a021461014857806319822f7c1461018457806334fcd5be146101c057610108565b3661010857005b5f5ffd5b348015610117575f5ffd5b50610132600480360381019061012d9190611c21565b6103fa565b60405161013f9190611c66565b60405180910390f35b348015610153575f5ffd5b5061016e60048036038101906101699190611d6d565b610533565b60405161017b9190611e00565b60405180910390f35b34801561018f575f5ffd5b506101aa60048036038101906101a59190611e6f565b610547565b6040516101b79190611eea565b60405180910390f35b3480156101cb575f5ffd5b506101e660048036038101906101e19190611f58565b610579565b005b6101f06106a9565b005b3480156101fd575f5ffd5b5061021860048036038101906102139190611fde565b61071a565b005b610234600480360381019061022f9190612154565b610795565b005b348015610241575f5ffd5b5061024a6107b4565b60405161025791906121bd565b60405180910390f35b34801561026b575f5ffd5b506102746107e5565b6040516102819190611eea565b60405180910390f35b348015610295575f5ffd5b5061029e6107ea565b6040516102ab9190612236565b60405180910390f35b3480156102bf575f5ffd5b506102c8610823565b6040516102d591906122b1565b60405180910390f35b3480156102e9575f5ffd5b5061030460048036038101906102ff91906122ca565b61084a565b005b348015610311575f5ffd5b5061032c60048036038101906103279190612390565b6108b9565b6040516103399190611e00565b60405180910390f35b34801561034d575f5ffd5b506103566108d0565b6040516103639190611eea565b60405180910390f35b348015610377575f5ffd5b50610380610955565b60405161038d9190611eea565b60405180910390f35b3480156103a1575f5ffd5b506103bc60048036038101906103b79190612467565b6109dc565b6040516103c99190611e00565b60405180910390f35b3480156103dd575f5ffd5b506103f860048036038101906103f391906124fd565b6109f1565b005b5f7f150b7a02000000000000000000000000000000000000000000000000000000007bffffffffffffffffffffffffffffffffffffffffffffffffffffffff1916827bffffffffffffffffffffffffffffffffffffffffffffffffffffffff191614806104c457507f4e2312e0000000000000000000000000000000000000000000000000000000007bffffffffffffffffffffffffffffffffffffffffffffffffffffffff1916827bffffffffffffffffffffffffffffffffffffffffffffffffffffffff1916145b8061052c57507f01ffc9a7000000000000000000000000000000000000000000000000000000007bffffffffffffffffffffffffffffffffffffffffffffffffffffffff1916827bffffffffffffffffffffffffffffffffffffffffffffffffffffffff1916145b9050919050565b5f63150b7a0260e01b905095945050505050565b5f610550610b72565b61055a8484610be9565b90506105698460200135610c60565b61057282610c63565b9392505050565b610581610cd7565b5f8282905090505f5f90505b818110156106a357368484838181106105a9576105a8612528565b5b90506020028101906105bb9190612561565b90505f610630825f0160208101906105d39190612588565b83602001358480604001906105e891906125b3565b8080601f0160208091040260200160405190810160405280939291908181526020018383808284375f81840152601f19601f820116905080830192505050505050505a610d4e565b905080610694576001840361064c57610647610d65565b610693565b826106565f610d78565b6040517f5a15467500000000000000000000000000000000000000000000000000000000815260040161068a929190612667565b60405180910390fd5b5b5050808060010191505061058d565b50505050565b6106b1610823565b73ffffffffffffffffffffffffffffffffffffffff1663b760faf934306040518363ffffffff1660e01b81526004016106ea91906126a4565b5f604051808303818588803b158015610701575f5ffd5b505af1158015610713573d5f5f3e3d5ffd5b5050505050565b610722610db0565b61072a610823565b73ffffffffffffffffffffffffffffffffffffffff1663205c287883836040518363ffffffff1660e01b81526004016107649291906126cc565b5f604051808303815f87803b15801561077b575f5ffd5b505af115801561078d573d5f5f3e3d5ffd5b505050505050565b61079d610e20565b6107a682610f06565b6107b08282610f11565b5050565b5f6107bd61102f565b7f360894a13ba1a3210667c828492db98dca3e2076cc3735a920a3ca505d382bbc5f1b905090565b5f5481565b6040518060400160405280600581526020017f352e302e3000000000000000000000000000000000000000000000000000000081525081565b5f7f0000000000000000000000000000000000000000000000000000000000000000905090565b610852610cd7565b5f6108a2858585858080601f0160208091040260200160405190810160405280939291908181526020018383808284375f81840152601f19601f820116905080830192505050505050505a610d4e565b9050806108b2576108b1610d65565b5b5050505050565b5f63bc197c8160e01b905098975050505050505050565b5f6108d9610823565b73ffffffffffffffffffffffffffffffffffffffff166370a08231306040518263ffffffff1660e01b815260040161091191906126a4565b602060405180830381865afa15801561092c573d5f5f3e3d5ffd5b505050506040513d601f19601f820116820180604052508101906109509190612707565b905090565b5f61095e610823565b73ffffffffffffffffffffffffffffffffffffffff166335567e1a305f6040518363ffffffff1660e01b815260040161099892919061278e565b602060405180830381865afa1580156109b3573d5f5f3e3d5ffd5b505050506040513d601f19601f820116820180604052508101906109d79190612707565b905090565b5f63f23a6e6160e01b90509695505050505050565b5f6109fa6110b6565b90505f815f0160089054906101000a900460ff161590505f825f015f9054906101000a900467ffffffffffffffff1690505f5f8267ffffffffffffffff16148015610a425750825b90505f60018367ffffffffffffffff16148015610a7557505f3073ffffffffffffffffffffffffffffffffffffffff163b145b905081158015610a83575080155b15610aba576040517ff92ee8a900000000000000000000000000000000000000000000000000000000815260040160405180910390fd5b6001855f015f6101000a81548167ffffffffffffffff021916908367ffffffffffffffff1602179055508315610b07576001855f0160086101000a81548160ff0219169083151502179055505b610b10866110c9565b8315610b6a575f855f0160086101000a81548160ff0219169083151502179055507fc7f505b2f371ae2175ee4913f4499e1f2633a7b5936321eed1cdaeb6115181d26001604051610b619190612801565b60405180910390a15b505050505050565b610b7a610823565b73ffffffffffffffffffffffffffffffffffffffff163373ffffffffffffffffffffffffffffffffffffffff1614610be7576040517f08c379a0000000000000000000000000000000000000000000000000000000008152600401610bde90612864565b60405180910390fd5b565b5f610c485f5484806101000190610c0091906125b3565b8080601f0160208091040260200160405190810160405280939291908181526020018383808284375f81840152601f19601f8201169050808301925050505050505084611137565b15610c55575f9050610c5a565b600190505b92915050565b50565b5f8114610cd4575f3373ffffffffffffffffffffffffffffffffffffffff1682604051610c8f906128af565b5f6040518083038185875af1925050503d805f8114610cc9576040519150601f19603f3d011682016040523d82523d5f602084013e610cce565b606091505b50509050505b50565b610cdf610823565b73ffffffffffffffffffffffffffffffffffffffff163373ffffffffffffffffffffffffffffffffffffffff1614610d4c576040517f08c379a0000000000000000000000000000000000000000000000000000000008152600401610d439061290d565b60405180910390fd5b565b5f5f5f845160208601878987f19050949350505050565b610d76610d715f610d78565b611232565b565b60603d5f831115610d905782811115610d8f578290505b5b604051602082018101604052818152815f602083013e8092505050919050565b3073ffffffffffffffffffffffffffffffffffffffff163373ffffffffffffffffffffffffffffffffffffffff1614610e1e576040517f08c379a0000000000000000000000000000000000000000000000000000000008152600401610e1590612975565b60405180910390fd5b565b7f000000000000000000000000000000000000000000000000000000000000000073ffffffffffffffffffffffffffffffffffffffff163073ffffffffffffffffffffffffffffffffffffffff161480610ecd57507f000000000000000000000000000000000000000000000000000000000000000073ffffffffffffffffffffffffffffffffffffffff16610eb461123a565b73ffffffffffffffffffffffffffffffffffffffff1614155b15610f04576040517fe07c8dba00000000000000000000000000000000000000000000000000000000815260040160405180910390fd5b565b610f0e610db0565b50565b8173ffffffffffffffffffffffffffffffffffffffff166352d1902d6040518163ffffffff1660e01b8152600401602060405180830381865afa925050508015610f7957506040513d601f19601f82011682018060405250810190610f7691906129a7565b60015b610fba57816040517f4c9c8ce3000000000000000000000000000000000000000000000000000000008152600401610fb191906126a4565b60405180910390fd5b7f360894a13ba1a3210667c828492db98dca3e2076cc3735a920a3ca505d382bbc5f1b811461102057806040517faa1d49a400000000000000000000000000000000000000000000000000000000815260040161101791906121bd565b60405180910390fd5b61102a838361128d565b505050565b7f000000000000000000000000000000000000000000000000000000000000000073ffffffffffffffffffffffffffffffffffffffff163073ffffffffffffffffffffffffffffffffffffffff16146110b4576040517fe07c8dba00000000000000000000000000000000000000000000000000000000815260040160405180910390fd5b565b5f5f6110c06112ff565b90508091505090565b805f819055505f547f000000000000000000000000000000000000000000000000000000000000000073ffffffffffffffffffffffffffffffffffffffff167f5827b0c3ef25df4d4b72c19490906a75144aec87f1f2ade73797eb2195cd69b060405160405180910390a350565b5f604083511461117c576040517f08c379a000000000000000000000000000000000000000000000000000000000815260040161117390612a1c565b60405180910390fd5b5f8490505f61118a82611328565b611195855f1c611328565b6040516020016111a6929190612b52565b60405160208183030381529060405290505f6002826040516111c89190612bc6565b602060405180830381855afa1580156111e3573d5f5f3e3d5ffd5b5050506040513d601f19601f8201168201806040525081019061120691906129a7565b90505f5f602088015191506040880151905061122485838386611432565b955050505050509392505050565b805160208201fd5b5f6112667f360894a13ba1a3210667c828492db98dca3e2076cc3735a920a3ca505d382bbc5f1b611640565b5f015f9054906101000a900473ffffffffffffffffffffffffffffffffffffffff16905090565b61129682611649565b8173ffffffffffffffffffffffffffffffffffffffff167fbc7cd75a20ee27fd9adebab32041f755214dbc6bffa90cc0225b39da2e5c2d3b60405160405180910390a25f815111156112f2576112ec8282611712565b506112fb565b6112fa611792565b5b5050565b5f7ff0c57e16840df040f15088dc2f81fe391c3923bec73e23a9662efc9c229c6a005f1b905090565b60605f604067ffffffffffffffff81111561134657611345612030565b5b6040519080825280601f01601f1916602001820160405280156113785781602001600182028036833780820191505090505b5090505f604090505b5f811115611428577f3031323334353637383961626364656600000000000000000000000000000000600f8516601081106113bf576113be612528565b5b1a60f81b826001836113d19190612c09565b815181106113e2576113e1612528565b5b60200101907effffffffffffffffffffffffffffffffffffffffffffffffffffffffffffff191690815f1a905350600484901c93508061142190612c3c565b9050611381565b5080915050919050565b5f7ffffffffffffffffffffffffffffffffffffffffffffffffffffffffefffffc2f8510158061148257507ffffffffffffffffffffffffffffffffffffffffffffffffffffffffefffffc2f8410155b806114ad57507ffffffffffffffffffffffffffffffffebaaedce6af48a03bbfd25e8cd03641418310155b156114ba575f9050611638565b5f5f6114c5866117ce565b91509150806114d8575f92505050611638565b5f6114e8875f1b895f1b87611833565b90505f7ffffffffffffffffffffffffffffffffebaaedce6af48a03bbfd25e8cd03641418061151a57611519612c63565b5b8988097ffffffffffffffffffffffffffffffffebaaedce6af48a03bbfd25e8cd03641416115489190612c09565b5f1b90505f7ffffffffffffffffffffffffffffffffebaaedce6af48a03bbfd25e8cd03641418061157c5761157b612c63565b5b8a84097ffffffffffffffffffffffffffffffffebaaedce6af48a03bbfd25e8cd03641416115aa9190612c09565b5f1b90505f600183601b8d5f1b856040515f81526020016040526040516115d49493929190612cd5565b6020604051602081039080840390855afa1580156115f4573d5f5f3e3d5ffd5b5050506020604051035190508573ffffffffffffffffffffffffffffffffffffffff168173ffffffffffffffffffffffffffffffffffffffff161496505050505050505b949350505050565b5f819050919050565b5f8173ffffffffffffffffffffffffffffffffffffffff163b036116a457806040517f4c9c8ce300000000000000000000000000000000000000000000000000000000815260040161169b91906126a4565b60405180910390fd5b806116d07f360894a13ba1a3210667c828492db98dca3e2076cc3735a920a3ca505d382bbc5f1b611640565b5f015f6101000a81548173ffffffffffffffffffffffffffffffffffffffff021916908373ffffffffffffffffffffffffffffffffffffffff16021790555050565b60605f5f8473ffffffffffffffffffffffffffffffffffffffff168460405161173b9190612bc6565b5f60405180830381855af49150503d805f8114611773576040519150601f19603f3d011682016040523d82523d5f602084013e611778565b606091505b5091509150611788858383611906565b9250505092915050565b5f3411156117cc576040517fb398979f00000000000000000000000000000000000000000000000000000000815260040160405180910390fd5b565b5f5f5f5f6117db85611993565b91509150806117f1575f5f93509350505061182e565b5f855f1b835f1b604051602001611809929190612d38565b604051602081830303815290604052805190602001209050805f1c6001945094505050505b915091565b5f5f7f7bb52d7a9fef58323eb1bf7a407db382d2f3f2d81bb1224f49fe518f6d48d37c5f1b90507ffffffffffffffffffffffffffffffffebaaedce6af48a03bbfd25e8cd036414160028283888888604051602001611896959493929190612d63565b6040516020818303038152906040526040516118b29190612bc6565b602060405180830381855afa1580156118cd573d5f5f3e3d5ffd5b5050506040513d601f19601f820116820180604052508101906118f091906129a7565b5f1c6118fc9190612dc1565b9150509392505050565b60608261191b5761191682611a87565b61198b565b5f825114801561194157505f8473ffffffffffffffffffffffffffffffffffffffff163b145b1561198357836040517f9996b31500000000000000000000000000000000000000000000000000000000815260040161197a91906126a4565b60405180910390fd5b81905061198c565b5b9392505050565b5f5f5f7ffffffffffffffffffffffffffffffffffffffffffffffffffffffffefffffc2f90505f5f90505f600790508286106119d7575f5f94509450505050611a82565b5f83806119e7576119e6612c63565b5b84806119f6576119f5612c63565b5b838680611a0657611a05612c63565b5b868b09088580611a1957611a18612c63565b5b8680611a2857611a27612c63565b5b8a8b098a09089050611a53816004600187611a439190612df1565b611a4d9190612e24565b86611aca565b90505f5f6001831614611a71578185611a6c9190612c09565b611a73565b815b90508060019650965050505050505b915091565b5f81511115611a9857805160208201fd5b6040517fd6bda27500000000000000000000000000000000000000000000000000000000815260040160405180910390fd5b5f5f8203611b0d576040517f08c379a0000000000000000000000000000000000000000000000000000000008152600401611b0490612e9e565b60405180910390fd5b5f8403611b1c575f9050611bb4565b5f8303611b2c5760019050611bb4565b5f600190505f7f800000000000000000000000000000000000000000000000000000000000000090505b5f811115611bae57838186161515870a85848509099150836002820486161515870a85848509099150836004820486161515870a85848509099150836008820486161515870a85848509099150601081049050611b56565b81925050505b9392505050565b5f604051905090565b5f5ffd5b5f5ffd5b5f7fffffffff0000000000000000000000000000000000000000000000000000000082169050919050565b611c0081611bcc565b8114611c0a575f5ffd5b50565b5f81359050611c1b81611bf7565b92915050565b5f60208284031215611c3657611c35611bc4565b5b5f611c4384828501611c0d565b91505092915050565b5f8115159050919050565b611c6081611c4c565b82525050565b5f602082019050611c795f830184611c57565b92915050565b5f73ffffffffffffffffffffffffffffffffffffffff82169050919050565b5f611ca882611c7f565b9050919050565b611cb881611c9e565b8114611cc2575f5ffd5b50565b5f81359050611cd381611caf565b92915050565b5f819050919050565b611ceb81611cd9565b8114611cf5575f5ffd5b50565b5f81359050611d0681611ce2565b92915050565b5f5ffd5b5f5ffd5b5f5ffd5b5f5f83601f840112611d2d57611d2c611d0c565b5b8235905067ffffffffffffffff811115611d4a57611d49611d10565b5b602083019150836001820283011115611d6657611d65611d14565b5b9250929050565b5f5f5f5f5f60808688031215611d8657611d85611bc4565b5b5f611d9388828901611cc5565b9550506020611da488828901611cc5565b9450506040611db588828901611cf8565b935050606086013567ffffffffffffffff811115611dd657611dd5611bc8565b5b611de288828901611d18565b92509250509295509295909350565b611dfa81611bcc565b82525050565b5f602082019050611e135f830184611df1565b92915050565b5f5ffd5b5f6101208284031215611e3357611e32611e19565b5b81905092915050565b5f819050919050565b611e4e81611e3c565b8114611e58575f5ffd5b50565b5f81359050611e6981611e45565b92915050565b5f5f5f60608486031215611e8657611e85611bc4565b5b5f84013567ffffffffffffffff811115611ea357611ea2611bc8565b5b611eaf86828701611e1d565b9350506020611ec086828701611e5b565b9250506040611ed186828701611cf8565b9150509250925092565b611ee481611cd9565b82525050565b5f602082019050611efd5f830184611edb565b92915050565b5f5f83601f840112611f1857611f17611d0c565b5b8235905067ffffffffffffffff811115611f3557611f34611d10565b5b602083019150836020820283011115611f5157611f50611d14565b5b9250929050565b5f5f60208385031215611f6e57611f6d611bc4565b5b5f83013567ffffffffffffffff811115611f8b57611f8a611bc8565b5b611f9785828601611f03565b92509250509250929050565b5f611fad82611c7f565b9050919050565b611fbd81611fa3565b8114611fc7575f5ffd5b50565b5f81359050611fd881611fb4565b92915050565b5f5f60408385031215611ff457611ff3611bc4565b5b5f61200185828601611fca565b925050602061201285828601611cf8565b9150509250929050565b5f5ffd5b5f601f19601f8301169050919050565b7f4e487b71000000000000000000000000000000000000000000000000000000005f52604160045260245ffd5b61206682612020565b810181811067ffffffffffffffff8211171561208557612084612030565b5b80604052505050565b5f612097611bbb565b90506120a3828261205d565b919050565b5f67ffffffffffffffff8211156120c2576120c1612030565b5b6120cb82612020565b9050602081019050919050565b828183375f83830152505050565b5f6120f86120f3846120a8565b61208e565b9050828152602081018484840111156121145761211361201c565b5b61211f8482856120d8565b509392505050565b5f82601f83011261213b5761213a611d0c565b5b813561214b8482602086016120e6565b91505092915050565b5f5f6040838503121561216a57612169611bc4565b5b5f61217785828601611cc5565b925050602083013567ffffffffffffffff81111561219857612197611bc8565b5b6121a485828601612127565b9150509250929050565b6121b781611e3c565b82525050565b5f6020820190506121d05f8301846121ae565b92915050565b5f81519050919050565b5f82825260208201905092915050565b8281835e5f83830152505050565b5f612208826121d6565b61221281856121e0565b93506122228185602086016121f0565b61222b81612020565b840191505092915050565b5f6020820190508181035f83015261224e81846121fe565b905092915050565b5f819050919050565b5f61227961227461226f84611c7f565b612256565b611c7f565b9050919050565b5f61228a8261225f565b9050919050565b5f61229b82612280565b9050919050565b6122ab81612291565b82525050565b5f6020820190506122c45f8301846122a2565b92915050565b5f5f5f5f606085870312156122e2576122e1611bc4565b5b5f6122ef87828801611cc5565b945050602061230087828801611cf8565b935050604085013567ffffffffffffffff81111561232157612320611bc8565b5b61232d87828801611d18565b925092505092959194509250565b5f5f83601f8401126123505761234f611d0c565b5b8235905067ffffffffffffffff81111561236d5761236c611d10565b5b60208301915083602082028301111561238957612388611d14565b5b9250929050565b5f5f5f5f5f5f5f5f60a0898b0312156123ac576123ab611bc4565b5b5f6123b98b828c01611cc5565b98505060206123ca8b828c01611cc5565b975050604089013567ffffffffffffffff8111156123eb576123ea611bc8565b5b6123f78b828c0161233b565b9650965050606089013567ffffffffffffffff81111561241a57612419611bc8565b5b6124268b828c0161233b565b9450945050608089013567ffffffffffffffff81111561244957612448611bc8565b5b6124558b828c01611d18565b92509250509295985092959890939650565b5f5f5f5f5f5f60a0878903121561248157612480611bc4565b5b5f61248e89828a01611cc5565b965050602061249f89828a01611cc5565b95505060406124b089828a01611cf8565b94505060606124c189828a01611cf8565b935050608087013567ffffffffffffffff8111156124e2576124e1611bc8565b5b6124ee89828a01611d18565b92509250509295509295509295565b5f6020828403121561251257612511611bc4565b5b5f61251f84828501611cf8565b91505092915050565b7f4e487b71000000000000000000000000000000000000000000000000000000005f52603260045260245ffd5b5f5ffd5b5f5ffd5b5f5ffd5b5f8235600160600383360303811261257c5761257b612555565b5b80830191505092915050565b5f6020828403121561259d5761259c611bc4565b5b5f6125aa84828501611cc5565b91505092915050565b5f5f833560016020038436030381126125cf576125ce612555565b5b80840192508235915067ffffffffffffffff8211156125f1576125f0612559565b5b60208301925060018202360383131561260d5761260c61255d565b5b509250929050565b5f81519050919050565b5f82825260208201905092915050565b5f61263982612615565b612643818561261f565b93506126538185602086016121f0565b61265c81612020565b840191505092915050565b5f60408201905061267a5f830185611edb565b818103602083015261268c818461262f565b90509392505050565b61269e81611c9e565b82525050565b5f6020820190506126b75f830184612695565b92915050565b6126c681611fa3565b82525050565b5f6040820190506126df5f8301856126bd565b6126ec6020830184611edb565b9392505050565b5f8151905061270181611ce2565b92915050565b5f6020828403121561271c5761271b611bc4565b5b5f612729848285016126f3565b91505092915050565b5f819050919050565b5f77ffffffffffffffffffffffffffffffffffffffffffffffff82169050919050565b5f61277861277361276e84612732565b612256565b61273b565b9050919050565b6127888161275e565b82525050565b5f6040820190506127a15f830185612695565b6127ae602083018461277f565b9392505050565b5f819050919050565b5f67ffffffffffffffff82169050919050565b5f6127eb6127e66127e1846127b5565b612256565b6127be565b9050919050565b6127fb816127d1565b82525050565b5f6020820190506128145f8301846127f2565b92915050565b7f6163636f756e743a206e6f742066726f6d20456e747279506f696e74000000005f82015250565b5f61284e601c836121e0565b91506128598261281a565b602082019050919050565b5f6020820190508181035f83015261287b81612842565b9050919050565b5f81905092915050565b50565b5f61289a5f83612882565b91506128a58261288c565b5f82019050919050565b5f6128b98261288f565b9150819050919050565b7f6163636f756e743a206e6f74204f776e6572206f7220456e747279506f696e745f82015250565b5f6128f76020836121e0565b9150612902826128c3565b602082019050919050565b5f6020820190508181035f830152612924816128eb565b9050919050565b7f6f6e6c79206f776e6572000000000000000000000000000000000000000000005f82015250565b5f61295f600a836121e0565b915061296a8261292b565b602082019050919050565b5f6020820190508181035f83015261298c81612953565b9050919050565b5f815190506129a181611e45565b92915050565b5f602082840312156129bc576129bb611bc4565b5b5f6129c984828501612993565b91505092915050565b7f6163636f756e743a20496e76616c696420736967206c656e00000000000000005f82015250565b5f612a066018836121e0565b9150612a11826129d2565b602082019050919050565b5f6020820190508181035f830152612a33816129fa565b9050919050565b5f81905092915050565b7f5b302c22000000000000000000000000000000000000000000000000000000005f82015250565b5f612a78600483612a3a565b9150612a8382612a44565b600482019050919050565b5f612a98826121d6565b612aa28185612a3a565b9350612ab28185602086016121f0565b80840191505092915050565b7f222c302c39363032342c5b5d2c220000000000000000000000000000000000005f82015250565b5f612af2600e83612a3a565b9150612afd82612abe565b600e82019050919050565b7f225d0000000000000000000000000000000000000000000000000000000000005f82015250565b5f612b3c600283612a3a565b9150612b4782612b08565b600282019050919050565b5f612b5c82612a6c565b9150612b688285612a8e565b9150612b7382612ae6565b9150612b7f8284612a8e565b9150612b8a82612b30565b91508190509392505050565b5f612ba082612615565b612baa8185612882565b9350612bba8185602086016121f0565b80840191505092915050565b5f612bd18284612b96565b915081905092915050565b7f4e487b71000000000000000000000000000000000000000000000000000000005f52601160045260245ffd5b5f612c1382611cd9565b9150612c1e83611cd9565b9250828203905081811115612c3657612c35612bdc565b5b92915050565b5f612c4682611cd9565b91505f8203612c5857612c57612bdc565b5b600182039050919050565b7f4e487b71000000000000000000000000000000000000000000000000000000005f52601260045260245ffd5b5f819050919050565b5f60ff82169050919050565b5f612cbf612cba612cb584612c90565b612256565b612c99565b9050919050565b612ccf81612ca5565b82525050565b5f608082019050612ce85f8301876121ae565b612cf56020830186612cc6565b612d0260408301856121ae565b612d0f60608301846121ae565b95945050505050565b5f819050919050565b612d32612d2d82611e3c565b612d18565b82525050565b5f612d438285612d21565b602082019150612d538284612d21565b6020820191508190509392505050565b5f612d6e8288612d21565b602082019150612d7e8287612d21565b602082019150612d8e8286612d21565b602082019150612d9e8285612d21565b602082019150612dae8284612d21565b6020820191508190509695505050505050565b5f612dcb82611cd9565b9150612dd683611cd9565b925082612de657612de5612c63565b5b828206905092915050565b5f612dfb82611cd9565b9150612e0683611cd9565b9250828201905080821115612e1e57612e1d612bdc565b5b92915050565b5f612e2e82611cd9565b9150612e3983611cd9565b925082612e4957612e48612c63565b5b828204905092915050565b7f4d6f64756c7573206973207a65726f00000000000000000000000000000000005f82015250565b5f612e88600f836121e0565b9150612e9382612e54565b602082019050919050565b5f6020820190508181035f830152612eb581612e7c565b905091905056fea2646970667358221220891c412d0bd511f852c10d50ae521ea9e80824aeac24685310f8b4f7743a0e6764736f6c634300081c0033","linkReferences":{}},"methodIdentifiers":{"accountImplementation()":"11464fbe","createAccount(uint256,uint256)":"610526d1","getAddress(uint256,uint256)":"9262d759"},"id":54}